{
  "contractName": "TCC",
  "abi": [
    {
      "inputs": [
        {
          "internalType": "string",
          "name": "NomeCliente",
          "type": "string"
        },
        {
          "internalType": "string",
          "name": "NomeEmpresa",
          "type": "string"
        },
        {
          "internalType": "string",
          "name": "TempoPrevisto",
          "type": "string"
        },
        {
          "internalType": "string",
          "name": "Requisitos",
          "type": "string"
        }
      ],
      "name": "setCETR",
      "outputs": [],
      "stateMutability": "nonpayable",
      "type": "function"
    }
  ],
  "bytecode": "0x608060405234801561001057600080fd5b50610419806100206000396000f3fe608060405234801561001057600080fd5b506004361061002b5760003560e01c8063b0ee96bd14610030575b600080fd5b61004a600480360381019061004591906102ab565b61004c565b005b83600090805190602001906100629291906100ae565b5082600190805190602001906100799291906100ae565b5081600290805190602001906100909291906100ae565b5080600390805190602001906100a79291906100ae565b5050505050565b8280546100ba906103b1565b90600052602060002090601f0160209004810192826100dc5760008555610123565b82601f106100f557805160ff1916838001178555610123565b82800160010185558215610123579182015b82811115610122578251825591602001919060010190610107565b5b5090506101309190610134565b5090565b5b8082111561014d576000816000905550600101610135565b5090565b6000604051905090565b600080fd5b600080fd5b600080fd5b600080fd5b6000601f19601f8301169050919050565b7f4e487b7100000000000000000000000000000000000000000000000000000000600052604160045260246000fd5b6101b88261016f565b810181811067ffffffffffffffff821117156101d7576101d6610180565b5b80604052505050565b60006101ea610151565b90506101f682826101af565b919050565b600067ffffffffffffffff82111561021657610215610180565b5b61021f8261016f565b9050602081019050919050565b82818337600083830152505050565b600061024e610249846101fb565b6101e0565b90508281526020810184848401111561026a5761026961016a565b5b61027584828561022c565b509392505050565b600082601f83011261029257610291610165565b5b81356102a284826020860161023b565b91505092915050565b600080600080608085870312156102c5576102c461015b565b5b600085013567ffffffffffffffff8111156102e3576102e2610160565b5b6102ef8782880161027d565b945050602085013567ffffffffffffffff8111156103105761030f610160565b5b61031c8782880161027d565b935050604085013567ffffffffffffffff81111561033d5761033c610160565b5b6103498782880161027d565b925050606085013567ffffffffffffffff81111561036a57610369610160565b5b6103768782880161027d565b91505092959194509250565b7f4e487b7100000000000000000000000000000000000000000000000000000000600052602260045260246000fd5b600060028204905060018216806103c957607f821691505b602082108114156103dd576103dc610382565b5b5091905056fea26469706673582212202db2245ed11f32b5a22e2bef02fe4a1c9d599c706c00e9e9a2b6cdc3de65d54264736f6c63430008090033",
  "immutableReferences": {},
  "source": "// SPDX-License-Identifier: GPL-3.0\npragma solidity >=0.7.0 <0.9.0;\n    \n    contract TCC {\n\n     /*   uint data;\n\n        function getData() external view returns(uint){\n            return data;\n        }\n\n        function setData(uint _data) external{\n            data = _data;\n        }\n\n        function setDataPrivate(uint _data) public{\n            data = _data + 10;\n        }*/\n           \n        string  nCL; //nome cliente\n        string  nEM; //nome empresa\n        string  tPR; //tempo previsto\n        string  rEQ; //requisies do software\n        \n        function setCETR(string memory NomeCliente, string memory NomeEmpresa, string memory TempoPrevisto, string memory Requisitos) public {\n            nCL = NomeCliente;\n            nEM = NomeEmpresa;\n            tPR = TempoPrevisto;\n            rEQ = Requisitos;\n        }  \n/*\n\n        function setnCL(string memory NomeCliente) public {\n            nCL = NomeCliente;\n        }  \n        \n        function setnEM(string memory NomeEmpresa) public {\n            nEM = NomeEmpresa;\n        }\n        \n        function settPR(string memory TempoPrevisto) public {\n            tPR = TempoPrevisto;\n        }\n        \n        function setrEQ(string memory Requisicao) public {\n            rEQ = Requisicao;\n        }*/\n        /*\n        function getContrato() public view returns (string [] memory) {\n            return ordemlista;\n        }   \n        */\n    }",
  "sourcePath": "/home/vitor/Documentos/TCC/contracts/TCC.sol",
  "compiler": {
    "name": "solc",
    "version": "0.8.9+commit.e5eed63a.Emscripten.clang"
  },
  "schemaVersion": "3.4.3",
  "updatedAt": "2021-11-13T02:52:54.063Z",
  "networkType": "ethereum",
  "devdoc": {
    "kind": "dev",
    "methods": {},
    "version": 1
  },
  "userdoc": {
    "kind": "user",
    "methods": {},
    "version": 1
  }
}